{
  "contractName": "PharmaChain",
  "abi": [
    {
      "constant": true,
      "inputs": [
        {
          "name": "",
          "type": "uint256"
        }
      ],
      "name": "mfgs",
      "outputs": [
        {
          "name": "mfgid",
          "type": "uint256"
        },
        {
          "name": "mfgname",
          "type": "string"
        },
        {
          "name": "productname",
          "type": "string"
        },
        {
          "name": "status",
          "type": "uint8"
        },
        {
          "name": "mfgaddress",
          "type": "address"
        },
        {
          "name": "createdby",
          "type": "address"
        },
        {
          "name": "createdat",
          "type": "uint256"
        }
      ],
      "payable": false,
      "stateMutability": "view",
      "type": "function"
    },
    {
      "constant": true,
      "inputs": [],
      "name": "superAdmin",
      "outputs": [
        {
          "name": "",
          "type": "address"
        }
      ],
      "payable": false,
      "stateMutability": "view",
      "type": "function"
    },
    {
      "constant": true,
      "inputs": [
        {
          "name": "",
          "type": "uint256"
        }
      ],
      "name": "productVerfs",
      "outputs": [
        {
          "name": "productname",
          "type": "string"
        },
        {
          "name": "productid",
          "type": "uint256"
        },
        {
          "name": "quality",
          "type": "uint256"
        },
        {
          "name": "status",
          "type": "uint8"
        }
      ],
      "payable": false,
      "stateMutability": "view",
      "type": "function"
    },
    {
      "constant": true,
      "inputs": [
        {
          "name": "",
          "type": "address"
        }
      ],
      "name": "admins",
      "outputs": [
        {
          "name": "name",
          "type": "string"
        },
        {
          "name": "status",
          "type": "uint8"
        },
        {
          "name": "adminaddress",
          "type": "address"
        },
        {
          "name": "createdby",
          "type": "address"
        },
        {
          "name": "createdat",
          "type": "uint256"
        }
      ],
      "payable": false,
      "stateMutability": "view",
      "type": "function"
    },
    {
      "constant": true,
      "inputs": [
        {
          "name": "",
          "type": "uint256"
        }
      ],
      "name": "sups",
      "outputs": [
        {
          "name": "supid",
          "type": "uint256"
        },
        {
          "name": "supname",
          "type": "string"
        },
        {
          "name": "rawmat",
          "type": "uint8"
        },
        {
          "name": "price",
          "type": "uint256"
        },
        {
          "name": "status",
          "type": "uint8"
        },
        {
          "name": "supaddress",
          "type": "address"
        },
        {
          "name": "createdby",
          "type": "address"
        },
        {
          "name": "createdat",
          "type": "uint256"
        }
      ],
      "payable": false,
      "stateMutability": "view",
      "type": "function"
    },
    {
      "constant": true,
      "inputs": [
        {
          "name": "",
          "type": "uint256"
        }
      ],
      "name": "quots",
      "outputs": [
        {
          "name": "rawmat",
          "type": "uint8"
        },
        {
          "name": "quantity",
          "type": "uint256"
        },
        {
          "name": "price",
          "type": "uint256"
        },
        {
          "name": "status",
          "type": "uint8"
        },
        {
          "name": "supid",
          "type": "uint256"
        },
        {
          "name": "mfgid",
          "type": "uint256"
        },
        {
          "name": "createdat",
          "type": "uint256"
        }
      ],
      "payable": false,
      "stateMutability": "view",
      "type": "function"
    },
    {
      "constant": true,
      "inputs": [
        {
          "name": "",
          "type": "address"
        }
      ],
      "name": "mfgsid",
      "outputs": [
        {
          "name": "",
          "type": "uint256"
        }
      ],
      "payable": false,
      "stateMutability": "view",
      "type": "function"
    },
    {
      "constant": true,
      "inputs": [
        {
          "name": "",
          "type": "address"
        }
      ],
      "name": "supsid",
      "outputs": [
        {
          "name": "",
          "type": "uint256"
        }
      ],
      "payable": false,
      "stateMutability": "view",
      "type": "function"
    },
    {
      "inputs": [],
      "payable": true,
      "stateMutability": "payable",
      "type": "constructor"
    },
    {
      "constant": false,
      "inputs": [
        {
          "name": "_name",
          "type": "string"
        },
        {
          "name": "_adminaddress",
          "type": "address"
        }
      ],
      "name": "createAdmin",
      "outputs": [
        {
          "name": "",
          "type": "bool"
        }
      ],
      "payable": false,
      "stateMutability": "nonpayable",
      "type": "function"
    },
    {
      "constant": false,
      "inputs": [
        {
          "name": "_adminaddress",
          "type": "address"
        }
      ],
      "name": "aproveAdmin",
      "outputs": [
        {
          "name": "",
          "type": "bool"
        }
      ],
      "payable": false,
      "stateMutability": "nonpayable",
      "type": "function"
    },
    {
      "constant": false,
      "inputs": [
        {
          "name": "_adminaddress",
          "type": "address"
        }
      ],
      "name": "rejectAdmin",
      "outputs": [
        {
          "name": "",
          "type": "bool"
        }
      ],
      "payable": false,
      "stateMutability": "nonpayable",
      "type": "function"
    },
    {
      "constant": true,
      "inputs": [
        {
          "name": "_id",
          "type": "address"
        }
      ],
      "name": "getAdmin",
      "outputs": [
        {
          "name": "",
          "type": "string"
        },
        {
          "name": "",
          "type": "uint8"
        },
        {
          "name": "",
          "type": "address"
        },
        {
          "name": "",
          "type": "address"
        },
        {
          "name": "",
          "type": "uint256"
        }
      ],
      "payable": false,
      "stateMutability": "view",
      "type": "function"
    },
    {
      "constant": false,
      "inputs": [
        {
          "name": "_mfgid",
          "type": "uint256"
        },
        {
          "name": "_mfgname",
          "type": "string"
        },
        {
          "name": "_productname",
          "type": "string"
        },
        {
          "name": "_mfgaddress",
          "type": "address"
        }
      ],
      "name": "createMfg",
      "outputs": [
        {
          "name": "",
          "type": "bool"
        }
      ],
      "payable": false,
      "stateMutability": "nonpayable",
      "type": "function"
    },
    {
      "constant": false,
      "inputs": [
        {
          "name": "_id",
          "type": "uint256"
        }
      ],
      "name": "aproveMfg",
      "outputs": [
        {
          "name": "",
          "type": "bool"
        }
      ],
      "payable": false,
      "stateMutability": "nonpayable",
      "type": "function"
    },
    {
      "constant": false,
      "inputs": [
        {
          "name": "_id",
          "type": "uint256"
        }
      ],
      "name": "rejectMfg",
      "outputs": [
        {
          "name": "",
          "type": "bool"
        }
      ],
      "payable": false,
      "stateMutability": "nonpayable",
      "type": "function"
    },
    {
      "constant": false,
      "inputs": [
        {
          "name": "_supid",
          "type": "uint256"
        },
        {
          "name": "_supname",
          "type": "string"
        },
        {
          "name": "_rawmat",
          "type": "uint8"
        },
        {
          "name": "_price",
          "type": "uint256"
        },
        {
          "name": "_supaddress",
          "type": "address"
        }
      ],
      "name": "createSup",
      "outputs": [
        {
          "name": "",
          "type": "bool"
        }
      ],
      "payable": false,
      "stateMutability": "nonpayable",
      "type": "function"
    },
    {
      "constant": false,
      "inputs": [
        {
          "name": "_id",
          "type": "uint256"
        }
      ],
      "name": "aproveSup",
      "outputs": [
        {
          "name": "",
          "type": "bool"
        }
      ],
      "payable": false,
      "stateMutability": "nonpayable",
      "type": "function"
    },
    {
      "constant": false,
      "inputs": [
        {
          "name": "_id",
          "type": "uint256"
        }
      ],
      "name": "rejectSup",
      "outputs": [
        {
          "name": "",
          "type": "bool"
        }
      ],
      "payable": false,
      "stateMutability": "nonpayable",
      "type": "function"
    },
    {
      "constant": true,
      "inputs": [
        {
          "name": "_mfgid",
          "type": "uint256"
        }
      ],
      "name": "searchMfg",
      "outputs": [
        {
          "name": "",
          "type": "uint256"
        },
        {
          "name": "",
          "type": "string"
        },
        {
          "name": "",
          "type": "string"
        },
        {
          "name": "",
          "type": "uint8"
        }
      ],
      "payable": false,
      "stateMutability": "view",
      "type": "function"
    },
    {
      "constant": true,
      "inputs": [
        {
          "name": "_supid",
          "type": "uint256"
        }
      ],
      "name": "searchSup",
      "outputs": [
        {
          "name": "",
          "type": "uint256"
        },
        {
          "name": "",
          "type": "string"
        },
        {
          "name": "",
          "type": "uint8"
        },
        {
          "name": "",
          "type": "uint256"
        },
        {
          "name": "",
          "type": "uint8"
        }
      ],
      "payable": false,
      "stateMutability": "view",
      "type": "function"
    },
    {
      "constant": false,
      "inputs": [
        {
          "name": "_mfgid",
          "type": "uint256"
        },
        {
          "name": "_rawmat",
          "type": "uint8"
        },
        {
          "name": "_quantity",
          "type": "uint256"
        },
        {
          "name": "_price",
          "type": "uint256"
        },
        {
          "name": "_supid",
          "type": "uint256"
        }
      ],
      "name": "createQuot",
      "outputs": [
        {
          "name": "",
          "type": "bool"
        }
      ],
      "payable": false,
      "stateMutability": "nonpayable",
      "type": "function"
    },
    {
      "constant": false,
      "inputs": [
        {
          "name": "_quotlist",
          "type": "uint256"
        }
      ],
      "name": "aproveQuot",
      "outputs": [
        {
          "name": "",
          "type": "bool"
        }
      ],
      "payable": false,
      "stateMutability": "nonpayable",
      "type": "function"
    },
    {
      "constant": false,
      "inputs": [
        {
          "name": "_quotlist",
          "type": "uint256"
        }
      ],
      "name": "rejectQuot",
      "outputs": [
        {
          "name": "",
          "type": "bool"
        }
      ],
      "payable": false,
      "stateMutability": "nonpayable",
      "type": "function"
    },
    {
      "constant": false,
      "inputs": [
        {
          "name": "_quotlist",
          "type": "uint256"
        },
        {
          "name": "_quantity",
          "type": "uint256"
        },
        {
          "name": "_price",
          "type": "uint256"
        }
      ],
      "name": "requot",
      "outputs": [
        {
          "name": "",
          "type": "bool"
        }
      ],
      "payable": false,
      "stateMutability": "nonpayable",
      "type": "function"
    },
    {
      "constant": false,
      "inputs": [
        {
          "name": "_quotlist",
          "type": "uint256"
        }
      ],
      "name": "aproveRequot",
      "outputs": [
        {
          "name": "",
          "type": "bool"
        }
      ],
      "payable": false,
      "stateMutability": "nonpayable",
      "type": "function"
    },
    {
      "constant": false,
      "inputs": [
        {
          "name": "_quotlist",
          "type": "uint256"
        }
      ],
      "name": "rejectRequot",
      "outputs": [
        {
          "name": "",
          "type": "bool"
        }
      ],
      "payable": false,
      "stateMutability": "nonpayable",
      "type": "function"
    },
    {
      "constant": true,
      "inputs": [
        {
          "name": "_quotid",
          "type": "uint256"
        }
      ],
      "name": "getQuot",
      "outputs": [
        {
          "name": "",
          "type": "uint8"
        },
        {
          "name": "",
          "type": "uint256"
        },
        {
          "name": "",
          "type": "uint256"
        },
        {
          "name": "",
          "type": "uint8"
        },
        {
          "name": "",
          "type": "uint256"
        },
        {
          "name": "",
          "type": "uint256"
        },
        {
          "name": "",
          "type": "uint256"
        }
      ],
      "payable": false,
      "stateMutability": "view",
      "type": "function"
    },
    {
      "constant": true,
      "inputs": [
        {
          "name": "_id",
          "type": "uint256"
        }
      ],
      "name": "getmfgQuotlist",
      "outputs": [
        {
          "name": "",
          "type": "uint256[]"
        }
      ],
      "payable": false,
      "stateMutability": "view",
      "type": "function"
    },
    {
      "constant": true,
      "inputs": [
        {
          "name": "_id",
          "type": "uint256"
        }
      ],
      "name": "getsupQuotlist",
      "outputs": [
        {
          "name": "",
          "type": "uint256[]"
        }
      ],
      "payable": false,
      "stateMutability": "view",
      "type": "function"
    },
    {
      "constant": false,
      "inputs": [
        {
          "name": "_productname",
          "type": "string"
        },
        {
          "name": "_productid",
          "type": "uint256"
        },
        {
          "name": "_quality",
          "type": "uint256"
        }
      ],
      "name": "productVerify",
      "outputs": [
        {
          "name": "",
          "type": "bool"
        }
      ],
      "payable": false,
      "stateMutability": "nonpayable",
      "type": "function"
    },
    {
      "constant": false,
      "inputs": [
        {
          "name": "_productid",
          "type": "uint256"
        }
      ],
      "name": "aproveProduct",
      "outputs": [
        {
          "name": "",
          "type": "bool"
        }
      ],
      "payable": false,
      "stateMutability": "nonpayable",
      "type": "function"
    },
    {
      "constant": false,
      "inputs": [
        {
          "name": "_productid",
          "type": "uint256"
        }
      ],
      "name": "rejectProduct",
      "outputs": [
        {
          "name": "",
          "type": "bool"
        }
      ],
      "payable": false,
      "stateMutability": "nonpayable",
      "type": "function"
    },
    {
      "constant": true,
      "inputs": [
        {
          "name": "_productid",
          "type": "uint256"
        }
      ],
      "name": "getProduct",
      "outputs": [
        {
          "name": "",
          "type": "string"
        },
        {
          "name": "",
          "type": "uint256"
        },
        {
          "name": "",
          "type": "uint256"
        },
        {
          "name": "",
          "type": "uint8"
        }
      ],
      "payable": false,
      "stateMutability": "view",
      "type": "function"
    },
    {
      "constant": false,
      "inputs": [
        {
          "name": "_productid",
          "type": "uint256"
        }
      ],
      "name": "producyOutdev",
      "outputs": [
        {
          "name": "",
          "type": "bool"
        }
      ],
      "payable": false,
      "stateMutability": "nonpayable",
      "type": "function"
    }
  ],
  "bytecode": "0x6080604052336000806101000a81548173ffffffffffffffffffffffffffffffffffffffff021916908373ffffffffffffffffffffffffffffffffffffffff1602179055506040518060a001604052806040518060400160405280600a81526020017f537570657241646d696e000000000000000000000000000000000000000000008152508152602001600260048111156200009857fe5b81526020013373ffffffffffffffffffffffffffffffffffffffff1681526020013373ffffffffffffffffffffffffffffffffffffffff16815260200142815250600760003373ffffffffffffffffffffffffffffffffffffffff1673ffffffffffffffffffffffffffffffffffffffff16815260200190815260200160002060008201518160000190805190602001906200013692919062000202565b5060208201518160010160006101000a81548160ff021916908360048111156200015c57fe5b021790555060408201518160010160016101000a81548173ffffffffffffffffffffffffffffffffffffffff021916908373ffffffffffffffffffffffffffffffffffffffff16021790555060608201518160020160006101000a81548173ffffffffffffffffffffffffffffffffffffffff021916908373ffffffffffffffffffffffffffffffffffffffff16021790555060808201518160030155905050620002b1565b828054600181600116156101000203166002900490600052602060002090601f016020900481019282601f106200024557805160ff191683800117855562000276565b8280016001018555821562000276579182015b828111156200027557825182559160200191906001019062000258565b5b50905062000285919062000289565b5090565b620002ae91905b80821115620002aa57600081600090555060010162000290565b5090565b90565b614a2380620002c16000396000f3fe608060405234801561001057600080fd5b50600436106102055760003560e01c80634cd3af571161011a5780638e92ac6a116100ad578063b9db15b41161007c578063b9db15b414611415578063bbb4bba8146114df578063c2d2d4b614611562578063ced8006f146115ba578063de53d6e91461164257610205565b80638e92ac6a14611141578063a24ed8ea1461119b578063a6150a34146111f3578063b936ce08146112e657610205565b80636d03d04a116100e95780636d03d04a14610e99578063700a60411461102d5780637c96ef2c14611073578063808f82ac146110fb57610205565b80634cd3af5714610bba5780634fd5c5ea14610cce57806364efb22b14610d1457806368c83b8b14610e5357610205565b8063177ba86a1161019d578063313c5bda1161016c578063313c5bda146107ae578063342dc010146107f45780633791799114610865578063429b62e51461092f5780634858b55d14610a6e57610205565b8063177ba86a1461063f5780631c54286e146106c25780631d5650fc1461070857806329575f6a1461076457610205565b8063078a3c49116101d9578063078a3c491461047857806307c2080f146104be5780630cec6f7b1461050457806315dab9bb146105e357610205565b8062616f701461020a57806301df5507146103a657806304177106146103ec5780630483f72114610432575b600080fd5b6102366004803603602081101561022057600080fd5b8101908080359060200190929190505050611729565b60405180888152602001806020018060200187600481111561025457fe5b60ff1681526020018673ffffffffffffffffffffffffffffffffffffffff1673ffffffffffffffffffffffffffffffffffffffff1681526020018573ffffffffffffffffffffffffffffffffffffffff1673ffffffffffffffffffffffffffffffffffffffff168152602001848152602001838103835289818151815260200191508051906020019080838360005b838110156102fe5780820151818401526020810190506102e3565b50505050905090810190601f16801561032b5780820380516001836020036101000a031916815260200191505b50838103825288818151815260200191508051906020019080838360005b83811015610364578082015181840152602081019050610349565b50505050905090810190601f1680156103915780820380516001836020036101000a031916815260200191505b50995050505050505050505060405180910390f35b6103d2600480360360208110156103bc57600080fd5b81019080803590602001909291905050506118e8565b604051808215151515815260200191505060405180910390f35b6104186004803603602081101561040257600080fd5b8101908080359060200190929190505050611a39565b604051808215151515815260200191505060405180910390f35b61045e6004803603602081101561044857600080fd5b8101908080359060200190929190505050611b33565b604051808215151515815260200191505060405180910390f35b6104a46004803603602081101561048e57600080fd5b8101908080359060200190929190505050611c2d565b604051808215151515815260200191505060405180910390f35b6104ea600480360360208110156104d457600080fd5b8101908080359060200190929190505050611d28565b604051808215151515815260200191505060405180910390f35b6105306004803603602081101561051a57600080fd5b8101908080359060200190929190505050611e78565b604051808681526020018060200185600381111561054a57fe5b60ff16815260200184815260200183600481111561056457fe5b60ff168152602001828103825286818151815260200191508051906020019080838360005b838110156105a4578082015181840152602081019050610589565b50505050905090810190601f1680156105d15780820380516001836020036101000a031916815260200191505b50965050505050505060405180910390f35b610625600480360360208110156105f957600080fd5b81019080803573ffffffffffffffffffffffffffffffffffffffff1690602001909291905050506120f8565b604051808215151515815260200191505060405180910390f35b61066b6004803603602081101561065557600080fd5b8101908080359060200190929190505050612232565b6040518080602001828103825283818151815260200191508051906020019060200280838360005b838110156106ae578082015181840152602081019050610693565b505050509050019250505060405180910390f35b6106ee600480360360208110156106d857600080fd5b8101908080359060200190929190505050612539565b604051808215151515815260200191505060405180910390f35b61074a6004803603602081101561071e57600080fd5b81019080803573ffffffffffffffffffffffffffffffffffffffff169060200190929190505050612634565b604051808215151515815260200191505060405180910390f35b61076c61276e565b604051808273ffffffffffffffffffffffffffffffffffffffff1673ffffffffffffffffffffffffffffffffffffffff16815260200191505060405180910390f35b6107da600480360360208110156107c457600080fd5b8101908080359060200190929190505050612793565b604051808215151515815260200191505060405180910390f35b61084b600480360360a081101561080a57600080fd5b8101908080359060200190929190803560ff1690602001909291908035906020019092919080359060200190929190803590602001909291905050506128e4565b604051808215151515815260200191505060405180910390f35b6108916004803603602081101561087b57600080fd5b8101908080359060200190929190505050612b69565b60405180806020018581526020018481526020018360048111156108b157fe5b60ff168152602001828103825286818151815260200191508051906020019080838360005b838110156108f15780820151818401526020810190506108d6565b50505050905090810190601f16801561091e5780820380516001836020036101000a031916815260200191505b509550505050505060405180910390f35b6109716004803603602081101561094557600080fd5b81019080803573ffffffffffffffffffffffffffffffffffffffff169060200190929190505050612c3e565b604051808060200186600481111561098557fe5b60ff1681526020018573ffffffffffffffffffffffffffffffffffffffff1673ffffffffffffffffffffffffffffffffffffffff1681526020018473ffffffffffffffffffffffffffffffffffffffff1673ffffffffffffffffffffffffffffffffffffffff168152602001838152602001828103825287818151815260200191508051906020019080838360005b83811015610a2f578082015181840152602081019050610a14565b50505050905090810190601f168015610a5c5780820380516001836020036101000a031916815260200191505b50965050505050505060405180910390f35b610a9a60048036036020811015610a8457600080fd5b8101908080359060200190929190505050612d59565b6040518089815260200180602001886003811115610ab457fe5b60ff168152602001878152602001866004811115610ace57fe5b60ff1681526020018573ffffffffffffffffffffffffffffffffffffffff1673ffffffffffffffffffffffffffffffffffffffff1681526020018473ffffffffffffffffffffffffffffffffffffffff1673ffffffffffffffffffffffffffffffffffffffff168152602001838152602001828103825289818151815260200191508051906020019080838360005b83811015610b78578082015181840152602081019050610b5d565b50505050905090810190601f168015610ba55780820380516001836020036101000a031916815260200191505b50995050505050505050505060405180910390f35b610cb4600480360360a0811015610bd057600080fd5b810190808035906020019092919080359060200190640100000000811115610bf757600080fd5b820183602082011115610c0957600080fd5b80359060200191846001830284011164010000000083111715610c2b57600080fd5b91908080601f016020809104026020016040519081016040528093929190818152602001838380828437600081840152601f19601f820116905080830192505050505050509192919290803560ff16906020019092919080359060200190929190803573ffffffffffffffffffffffffffffffffffffffff169060200190929190505050612e93565b604051808215151515815260200191505060405180910390f35b610cfa60048036036020811015610ce457600080fd5b8101908080359060200190929190505050613133565b604051808215151515815260200191505060405180910390f35b610d5660048036036020811015610d2a57600080fd5b81019080803573ffffffffffffffffffffffffffffffffffffffff169060200190929190505050613283565b6040518080602001866004811115610d6a57fe5b60ff1681526020018573ffffffffffffffffffffffffffffffffffffffff1673ffffffffffffffffffffffffffffffffffffffff1681526020018473ffffffffffffffffffffffffffffffffffffffff1673ffffffffffffffffffffffffffffffffffffffff168152602001838152602001828103825287818151815260200191508051906020019080838360005b83811015610e14578082015181840152602081019050610df9565b50505050905090810190601f168015610e415780820380516001836020036101000a031916815260200191505b50965050505050505060405180910390f35b610e7f60048036036020811015610e6957600080fd5b8101908080359060200190929190505050613494565b604051808215151515815260200191505060405180910390f35b61101360048036036080811015610eaf57600080fd5b810190808035906020019092919080359060200190640100000000811115610ed657600080fd5b820183602082011115610ee857600080fd5b80359060200191846001830284011164010000000083111715610f0a57600080fd5b91908080601f016020809104026020016040519081016040528093929190818152602001838380828437600081840152601f19601f82011690508083019250505050505050919291929080359060200190640100000000811115610f6d57600080fd5b820183602082011115610f7f57600080fd5b80359060200191846001830284011164010000000083111715610fa157600080fd5b91908080601f016020809104026020016040519081016040528093929190818152602001838380828437600081840152601f19601f820116905080830192505050505050509192919290803573ffffffffffffffffffffffffffffffffffffffff16906020019092919050505061358f565b604051808215151515815260200191505060405180910390f35b6110596004803603602081101561104357600080fd5b8101908080359060200190929190505050613807565b604051808215151515815260200191505060405180910390f35b61109f6004803603602081101561108957600080fd5b8101908080359060200190929190505050613902565b604051808860038111156110af57fe5b60ff1681526020018781526020018681526020018560048111156110cf57fe5b60ff16815260200184815260200183815260200182815260200197505050505050505060405180910390f35b6111276004803603602081101561111157600080fd5b810190808035906020019092919050505061395e565b604051808215151515815260200191505060405180910390f35b6111816004803603606081101561115757600080fd5b81019080803590602001909291908035906020019092919080359060200190929190505050613a59565b604051808215151515815260200191505060405180910390f35b6111dd600480360360208110156111b157600080fd5b81019080803573ffffffffffffffffffffffffffffffffffffffff169060200190929190505050613b7b565b6040518082815260200191505060405180910390f35b6112cc6004803603604081101561120957600080fd5b810190808035906020019064010000000081111561122657600080fd5b82018360208201111561123857600080fd5b8035906020019184600183028401116401000000008311171561125a57600080fd5b91908080601f016020809104026020016040519081016040528093929190818152602001838380828437600081840152601f19601f820116905080830192505050505050509192919290803573ffffffffffffffffffffffffffffffffffffffff169060200190929190505050613b93565b604051808215151515815260200191505060405180910390f35b611312600480360360208110156112fc57600080fd5b8101908080359060200190929190505050613e02565b60405180858152602001806020018060200184600481111561133057fe5b60ff168152602001838103835286818151815260200191508051906020019080838360005b83811015611370578082015181840152602081019050611355565b50505050905090810190601f16801561139d5780820380516001836020036101000a031916815260200191505b50838103825285818151815260200191508051906020019080838360005b838110156113d65780820151818401526020810190506113bb565b50505050905090810190601f1680156114035780820380516001836020036101000a031916815260200191505b50965050505050505060405180910390f35b6114416004803603602081101561142b57600080fd5b81019080803590602001909291905050506140e5565b604051808060200185815260200184815260200183600481111561146157fe5b60ff168152602001828103825286818151815260200191508051906020019080838360005b838110156114a1578082015181840152602081019050611486565b50505050905090810190601f1680156114ce5780820380516001836020036101000a031916815260200191505b509550505050505060405180910390f35b61150b600480360360208110156114f557600080fd5b810190808035906020019092919050505061421e565b6040518080602001828103825283818151815260200191508051906020019060200280838360005b8381101561154e578082015181840152602081019050611533565b505050509050019250505060405180910390f35b6115a46004803603602081101561157857600080fd5b81019080803573ffffffffffffffffffffffffffffffffffffffff1690602001909291905050506144ba565b6040518082815260200191505060405180910390f35b6115e6600480360360208110156115d057600080fd5b81019080803590602001909291905050506144d2565b604051808860038111156115f657fe5b60ff16815260200187815260200186815260200185600481111561161657fe5b60ff16815260200184815260200183815260200182815260200197505050505050505060405180910390f35b61170f6004803603606081101561165857600080fd5b810190808035906020019064010000000081111561167557600080fd5b82018360208201111561168757600080fd5b803590602001918460018302840111640100000000831117156116a957600080fd5b91908080601f016020809104026020016040519081016040528093929190818152602001838380828437600081840152601f19601f82011690508083019250505050505050919291929080359060200190929190803590602001909291905050506145f1565b604051808215151515815260200191505060405180910390f35b6002602052806000526040600020600091509050806000015490806001018054600181600116156101000203166002900480601f0160208091040260200160405190810160405280929190818152602001828054600181600116156101000203166002900480156117db5780601f106117b0576101008083540402835291602001916117db565b820191906000526020600020905b8154815290600101906020018083116117be57829003601f168201915b505050505090806002018054600181600116156101000203166002900480601f0160208091040260200160405190810160405280929190818152602001828054600181600116156101000203166002900480156118795780601f1061184e57610100808354040283529160200191611879565b820191906000526020600020905b81548152906001019060200180831161185c57829003601f168201915b5050505050908060040160009054906101000a900460ff16908060040160019054906101000a900473ffffffffffffffffffffffffffffffffffffffff16908060050160009054906101000a900473ffffffffffffffffffffffffffffffffffffffff16908060060154905087565b60008060009054906101000a900473ffffffffffffffffffffffffffffffffffffffff1673ffffffffffffffffffffffffffffffffffffffff163373ffffffffffffffffffffffffffffffffffffffff161461194357600080fd5b3373ffffffffffffffffffffffffffffffffffffffff166002600084815260200190815260200160002060050160009054906101000a900473ffffffffffffffffffffffffffffffffffffffff1673ffffffffffffffffffffffffffffffffffffffff1614156119b257600080fd5b600160048111156119bf57fe5b6002600084815260200190815260200160002060040160009054906101000a900460ff1660048111156119ee57fe5b146119f857600080fd5b60036002600084815260200190815260200160002060040160006101000a81548160ff02191690836004811115611a2b57fe5b021790555060019050919050565b600060026004811115611a4857fe5b600760003373ffffffffffffffffffffffffffffffffffffffff1673ffffffffffffffffffffffffffffffffffffffff16815260200190815260200160002060010160009054906101000a900460ff166004811115611aa357fe5b14611aad57600080fd5b600480811115611ab957fe5b6006600084815260200190815260200160002060030160009054906101000a900460ff166004811115611ae857fe5b14611af257600080fd5b60026006600084815260200190815260200160002060030160006101000a81548160ff02191690836004811115611b2557fe5b021790555060019050919050565b600060026004811115611b4257fe5b600760003373ffffffffffffffffffffffffffffffffffffffff1673ffffffffffffffffffffffffffffffffffffffff16815260200190815260200160002060010160009054906101000a900460ff166004811115611b9d57fe5b14611ba757600080fd5b600480811115611bb357fe5b6006600084815260200190815260200160002060030160009054906101000a900460ff166004811115611be257fe5b14611bec57600080fd5b60036006600084815260200190815260200160002060030160006101000a81548160ff02191690836004811115611c1f57fe5b021790555060019050919050565b600060026004811115611c3c57fe5b600760003373ffffffffffffffffffffffffffffffffffffffff1673ffffffffffffffffffffffffffffffffffffffff16815260200190815260200160002060010160009054906101000a900460ff166004811115611c9757fe5b14611ca157600080fd5b60016004811115611cae57fe5b6006600084815260200190815260200160002060030160009054906101000a900460ff166004811115611cdd57fe5b14611ce757600080fd5b60036006600084815260200190815260200160002060030160006101000a81548160ff02191690836004811115611d1a57fe5b021790555060019050919050565b60008060009054906101000a900473ffffffffffffffffffffffffffffffffffffffff1673ffffffffffffffffffffffffffffffffffffffff163373ffffffffffffffffffffffffffffffffffffffff1614611d8357600080fd5b3373ffffffffffffffffffffffffffffffffffffffff166003600084815260200190815260200160002060060160009054906101000a900473ffffffffffffffffffffffffffffffffffffffff1673ffffffffffffffffffffffffffffffffffffffff161415611df257600080fd5b60016004811115611dff57fe5b6003600084815260200190815260200160002060050160009054906101000a900460ff166004811115611e2e57fe5b14611e3857600080fd5b600380600084815260200190815260200160002060050160006101000a81548160ff02191690836004811115611e6a57fe5b021790555060019050919050565b600060606000806000611e896146dc565b600360008881526020019081526020016000206040518061012001604052908160008201548152602001600182018054600181600116156101000203166002900480601f016020809104026020016040519081016040528092919081815260200182805460018160011615610100020316600290048015611f4b5780601f10611f2057610100808354040283529160200191611f4b565b820191906000526020600020905b815481529060010190602001808311611f2e57829003601f168201915b505050505081526020016002820160009054906101000a900460ff166003811115611f7257fe5b6003811115611f7d57fe5b81526020016003820154815260200160048201805480602002602001604051908101604052809291908181526020018280548015611fda57602002820191906000526020600020905b815481526020019060010190808311611fc6575b505050505081526020016005820160009054906101000a900460ff16600481111561200157fe5b600481111561200c57fe5b81526020016005820160019054906101000a900473ffffffffffffffffffffffffffffffffffffffff1673ffffffffffffffffffffffffffffffffffffffff1673ffffffffffffffffffffffffffffffffffffffff1681526020016006820160009054906101000a900473ffffffffffffffffffffffffffffffffffffffff1673ffffffffffffffffffffffffffffffffffffffff1673ffffffffffffffffffffffffffffffffffffffff168152602001600782015481525050905080600001518160200151826040015183606001518460a00151839350955095509550955095505091939590929450565b60008060009054906101000a900473ffffffffffffffffffffffffffffffffffffffff1673ffffffffffffffffffffffffffffffffffffffff163373ffffffffffffffffffffffffffffffffffffffff161461215357600080fd5b6001600481111561216057fe5b600760008473ffffffffffffffffffffffffffffffffffffffff1673ffffffffffffffffffffffffffffffffffffffff16815260200190815260200160002060010160009054906101000a900460ff1660048111156121bb57fe5b146121c557600080fd5b6003600760008473ffffffffffffffffffffffffffffffffffffffff1673ffffffffffffffffffffffffffffffffffffffff16815260200190815260200160002060010160006101000a81548160ff0219169083600481111561222457fe5b021790555060019050919050565b60606002600481111561224157fe5b6002600084815260200190815260200160002060040160009054906101000a900460ff16600481111561227057fe5b1461227a57600080fd5b61228261476a565b600260008481526020019081526020016000206040518061010001604052908160008201548152602001600182018054600181600116156101000203166002900480601f0160208091040260200160405190810160405280929190818152602001828054600181600116156101000203166002900480156123445780601f1061231957610100808354040283529160200191612344565b820191906000526020600020905b81548152906001019060200180831161232757829003601f168201915b50505050508152602001600282018054600181600116156101000203166002900480601f0160208091040260200160405190810160405280929190818152602001828054600181600116156101000203166002900480156123e65780601f106123bb576101008083540402835291602001916123e6565b820191906000526020600020905b8154815290600101906020018083116123c957829003601f168201915b505050505081526020016003820180548060200260200160405190810160405280929190818152602001828054801561243e57602002820191906000526020600020905b81548152602001906001019080831161242a575b505050505081526020016004820160009054906101000a900460ff16600481111561246557fe5b600481111561247057fe5b81526020016004820160019054906101000a900473ffffffffffffffffffffffffffffffffffffffff1673ffffffffffffffffffffffffffffffffffffffff1673ffffffffffffffffffffffffffffffffffffffff1681526020016005820160009054906101000a900473ffffffffffffffffffffffffffffffffffffffff1673ffffffffffffffffffffffffffffffffffffffff1673ffffffffffffffffffffffffffffffffffffffff16815260200160068201548152505090508060600151915050919050565b60006002600481111561254857fe5b600760003373ffffffffffffffffffffffffffffffffffffffff1673ffffffffffffffffffffffffffffffffffffffff16815260200190815260200160002060010160009054906101000a900460ff1660048111156125a357fe5b146125ad57600080fd5b600260048111156125ba57fe5b6008600084815260200190815260200160002060030160009054906101000a900460ff1660048111156125e957fe5b146125f357600080fd5b60046008600084815260200190815260200160002060030160006101000a81548160ff0219169083600481111561262657fe5b021790555060019050919050565b60008060009054906101000a900473ffffffffffffffffffffffffffffffffffffffff1673ffffffffffffffffffffffffffffffffffffffff163373ffffffffffffffffffffffffffffffffffffffff161461268f57600080fd5b6001600481111561269c57fe5b600760008473ffffffffffffffffffffffffffffffffffffffff1673ffffffffffffffffffffffffffffffffffffffff16815260200190815260200160002060010160009054906101000a900460ff1660048111156126f757fe5b1461270157600080fd5b6002600760008473ffffffffffffffffffffffffffffffffffffffff1673ffffffffffffffffffffffffffffffffffffffff16815260200190815260200160002060010160006101000a81548160ff0219169083600481111561276057fe5b021790555060019050919050565b6000809054906101000a900473ffffffffffffffffffffffffffffffffffffffff1681565b60008060009054906101000a900473ffffffffffffffffffffffffffffffffffffffff1673ffffffffffffffffffffffffffffffffffffffff163373ffffffffffffffffffffffffffffffffffffffff16146127ee57600080fd5b3373ffffffffffffffffffffffffffffffffffffffff166003600084815260200190815260200160002060060160009054906101000a900473ffffffffffffffffffffffffffffffffffffffff1673ffffffffffffffffffffffffffffffffffffffff16141561285d57600080fd5b6001600481111561286a57fe5b6003600084815260200190815260200160002060050160009054906101000a900460ff16600481111561289957fe5b146128a357600080fd5b60026003600084815260200190815260200160002060050160006101000a81548160ff021916908360048111156128d657fe5b021790555060019050919050565b60003373ffffffffffffffffffffffffffffffffffffffff166002600088815260200190815260200160002060040160019054906101000a900473ffffffffffffffffffffffffffffffffffffffff1673ffffffffffffffffffffffffffffffffffffffff161461295457600080fd5b6002600481111561296157fe5b6002600088815260200190815260200160002060040160009054906101000a900460ff16600481111561299057fe5b1461299a57600080fd5b600260048111156129a757fe5b6003600084815260200190815260200160002060050160009054906101000a900460ff1660048111156129d657fe5b146129e057600080fd5b6001600081548092919060010191905055506040518060e00160405280866003811115612a0957fe5b815260200185815260200184815260200160016004811115612a2757fe5b81526020018381526020018781526020014281525060066000600154815260200190815260200160002060008201518160000160006101000a81548160ff02191690836003811115612a7557fe5b0217905550602082015181600101556040820151816002015560608201518160030160006101000a81548160ff02191690836004811115612ab257fe5b02179055506080820151816004015560a0820151816005015560c082015181600601559050506002600087815260200190815260200160002060030160015490806001815401808255809150509060018203906000526020600020016000909192909190915055506003600083815260200190815260200160002060040160015490806001815401808255809150509060018203906000526020600020016000909192909190915055506001905095945050505050565b6008602052806000526040600020600091509050806000018054600181600116156101000203166002900480601f016020809104026020016040519081016040528092919081815260200182805460018160011615610100020316600290048015612c155780601f10612bea57610100808354040283529160200191612c15565b820191906000526020600020905b815481529060010190602001808311612bf857829003601f168201915b5050505050908060010154908060020154908060030160009054906101000a900460ff16905084565b6007602052806000526040600020600091509050806000018054600181600116156101000203166002900480601f016020809104026020016040519081016040528092919081815260200182805460018160011615610100020316600290048015612cea5780601f10612cbf57610100808354040283529160200191612cea565b820191906000526020600020905b815481529060010190602001808311612ccd57829003601f168201915b5050505050908060010160009054906101000a900460ff16908060010160019054906101000a900473ffffffffffffffffffffffffffffffffffffffff16908060020160009054906101000a900473ffffffffffffffffffffffffffffffffffffffff16908060030154905085565b6003602052806000526040600020600091509050806000015490806001018054600181600116156101000203166002900480601f016020809104026020016040519081016040528092919081815260200182805460018160011615610100020316600290048015612e0b5780601f10612de057610100808354040283529160200191612e0b565b820191906000526020600020905b815481529060010190602001808311612dee57829003601f168201915b5050505050908060020160009054906101000a900460ff16908060030154908060050160009054906101000a900460ff16908060050160019054906101000a900473ffffffffffffffffffffffffffffffffffffffff16908060060160009054906101000a900473ffffffffffffffffffffffffffffffffffffffff16908060070154905088565b600060026004811115612ea257fe5b600760003373ffffffffffffffffffffffffffffffffffffffff1673ffffffffffffffffffffffffffffffffffffffff16815260200190815260200160002060010160009054906101000a900460ff166004811115612efd57fe5b14612f0757600080fd5b60006004811115612f1457fe5b6003600088815260200190815260200160002060050160009054906101000a900460ff166004811115612f4357fe5b14612f4d57600080fd5b85600360008881526020019081526020016000206000018190555084600360008881526020019081526020016000206001019080519060200190612f929291906147e6565b50836003600088815260200190815260200160002060020160006101000a81548160ff02191690836003811115612fc557fe5b021790555082600360008881526020019081526020016000206003018190555060016003600088815260200190815260200160002060050160006101000a81548160ff0219169083600481111561301857fe5b0217905550816003600088815260200190815260200160002060050160016101000a81548173ffffffffffffffffffffffffffffffffffffffff021916908373ffffffffffffffffffffffffffffffffffffffff160217905550336003600088815260200190815260200160002060060160006101000a81548173ffffffffffffffffffffffffffffffffffffffff021916908373ffffffffffffffffffffffffffffffffffffffff16021790555042600360008881526020019081526020016000206007018190555085600560008473ffffffffffffffffffffffffffffffffffffffff1673ffffffffffffffffffffffffffffffffffffffff168152602001908152602001600020819055506001905095945050505050565b60008060009054906101000a900473ffffffffffffffffffffffffffffffffffffffff1673ffffffffffffffffffffffffffffffffffffffff163373ffffffffffffffffffffffffffffffffffffffff161461318e57600080fd5b3373ffffffffffffffffffffffffffffffffffffffff166002600084815260200190815260200160002060050160009054906101000a900473ffffffffffffffffffffffffffffffffffffffff1673ffffffffffffffffffffffffffffffffffffffff1614156131fd57600080fd5b6001600481111561320a57fe5b6002600084815260200190815260200160002060040160009054906101000a900460ff16600481111561323957fe5b1461324357600080fd5b600280600084815260200190815260200160002060040160006101000a81548160ff0219169083600481111561327557fe5b021790555060019050919050565b6060600080600080613293614866565b600760008873ffffffffffffffffffffffffffffffffffffffff1673ffffffffffffffffffffffffffffffffffffffff1681526020019081526020016000206040518060a0016040529081600082018054600181600116156101000203166002900480601f0160208091040260200160405190810160405280929190818152602001828054600181600116156101000203166002900480156133765780601f1061334b57610100808354040283529160200191613376565b820191906000526020600020905b81548152906001019060200180831161335957829003601f168201915b505050505081526020016001820160009054906101000a900460ff16600481111561339d57fe5b60048111156133a857fe5b81526020016001820160019054906101000a900473ffffffffffffffffffffffffffffffffffffffff1673ffffffffffffffffffffffffffffffffffffffff1673ffffffffffffffffffffffffffffffffffffffff1681526020016002820160009054906101000a900473ffffffffffffffffffffffffffffffffffffffff1673ffffffffffffffffffffffffffffffffffffffff1673ffffffffffffffffffffffffffffffffffffffff168152602001600382015481525050905080600001518160200151826040015183606001518460800151849450955095509550955095505091939590929450565b6000600260048111156134a357fe5b600760003373ffffffffffffffffffffffffffffffffffffffff1673ffffffffffffffffffffffffffffffffffffffff16815260200190815260200160002060010160009054906101000a900460ff1660048111156134fe57fe5b1461350857600080fd5b6001600481111561351557fe5b6008600084815260200190815260200160002060030160009054906101000a900460ff16600481111561354457fe5b1461354e57600080fd5b60036008600084815260200190815260200160002060030160006101000a81548160ff0219169083600481111561358157fe5b021790555060019050919050565b60006002600481111561359e57fe5b600760003373ffffffffffffffffffffffffffffffffffffffff1673ffffffffffffffffffffffffffffffffffffffff16815260200190815260200160002060010160009054906101000a900460ff1660048111156135f957fe5b1461360357600080fd5b6000600481111561361057fe5b6002600087815260200190815260200160002060040160009054906101000a900460ff16600481111561363f57fe5b1461364957600080fd5b8460026000878152602001908152602001600020600001819055508360026000878152602001908152602001600020600101908051906020019061368e9291906147e6565b50826002600087815260200190815260200160002060020190805190602001906136b99291906147e6565b5060016002600087815260200190815260200160002060040160006101000a81548160ff021916908360048111156136ed57fe5b0217905550816002600087815260200190815260200160002060040160016101000a81548173ffffffffffffffffffffffffffffffffffffffff021916908373ffffffffffffffffffffffffffffffffffffffff160217905550336002600087815260200190815260200160002060050160006101000a81548173ffffffffffffffffffffffffffffffffffffffff021916908373ffffffffffffffffffffffffffffffffffffffff16021790555042600260008781526020019081526020016000206006018190555084600460008473ffffffffffffffffffffffffffffffffffffffff1673ffffffffffffffffffffffffffffffffffffffff1681526020019081526020016000208190555060019050949350505050565b60006002600481111561381657fe5b600760003373ffffffffffffffffffffffffffffffffffffffff1673ffffffffffffffffffffffffffffffffffffffff16815260200190815260200160002060010160009054906101000a900460ff16600481111561387157fe5b1461387b57600080fd5b6001600481111561388857fe5b6006600084815260200190815260200160002060030160009054906101000a900460ff1660048111156138b757fe5b146138c157600080fd5b60026006600084815260200190815260200160002060030160006101000a81548160ff021916908360048111156138f457fe5b021790555060019050919050565b60066020528060005260406000206000915090508060000160009054906101000a900460ff16908060010154908060020154908060030160009054906101000a900460ff16908060040154908060050154908060060154905087565b60006002600481111561396d57fe5b600760003373ffffffffffffffffffffffffffffffffffffffff1673ffffffffffffffffffffffffffffffffffffffff16815260200190815260200160002060010160009054906101000a900460ff1660048111156139c857fe5b146139d257600080fd5b600160048111156139df57fe5b6008600084815260200190815260200160002060030160009054906101000a900460ff166004811115613a0e57fe5b14613a1857600080fd5b60026008600084815260200190815260200160002060030160006101000a81548160ff02191690836004811115613a4b57fe5b021790555060019050919050565b600060016004811115613a6857fe5b6006600086815260200190815260200160002060030160009054906101000a900460ff166004811115613a9757fe5b14613aa157600080fd5b600460003373ffffffffffffffffffffffffffffffffffffffff1673ffffffffffffffffffffffffffffffffffffffff16815260200190815260200160002054600660008681526020019081526020016000206005015414613b0257600080fd5b82600660008681526020019081526020016000206001018190555081600660008681526020019081526020016000206002018190555060046006600086815260200190815260200160002060030160006101000a81548160ff02191690836004811115613b6b57fe5b0217905550600190509392505050565b60046020528060005260406000206000915090505481565b600060026004811115613ba257fe5b600760003373ffffffffffffffffffffffffffffffffffffffff1673ffffffffffffffffffffffffffffffffffffffff16815260200190815260200160002060010160009054906101000a900460ff166004811115613bfd57fe5b14613c0757600080fd5b60006004811115613c1457fe5b600760008473ffffffffffffffffffffffffffffffffffffffff1673ffffffffffffffffffffffffffffffffffffffff16815260200190815260200160002060010160009054906101000a900460ff166004811115613c6f57fe5b14613c7957600080fd5b6040518060a0016040528084815260200160016004811115613c9757fe5b81526020018373ffffffffffffffffffffffffffffffffffffffff1681526020013373ffffffffffffffffffffffffffffffffffffffff16815260200142815250600760008473ffffffffffffffffffffffffffffffffffffffff1673ffffffffffffffffffffffffffffffffffffffff1681526020019081526020016000206000820151816000019080519060200190613d339291906148cc565b5060208201518160010160006101000a81548160ff02191690836004811115613d5857fe5b021790555060408201518160010160016101000a81548173ffffffffffffffffffffffffffffffffffffffff021916908373ffffffffffffffffffffffffffffffffffffffff16021790555060608201518160020160006101000a81548173ffffffffffffffffffffffffffffffffffffffff021916908373ffffffffffffffffffffffffffffffffffffffff160217905550608082015181600301559050506001905092915050565b60006060806000613e1161476a565b600260008781526020019081526020016000206040518061010001604052908160008201548152602001600182018054600181600116156101000203166002900480601f016020809104026020016040519081016040528092919081815260200182805460018160011615610100020316600290048015613ed35780601f10613ea857610100808354040283529160200191613ed3565b820191906000526020600020905b815481529060010190602001808311613eb657829003601f168201915b50505050508152602001600282018054600181600116156101000203166002900480601f016020809104026020016040519081016040528092919081815260200182805460018160011615610100020316600290048015613f755780601f10613f4a57610100808354040283529160200191613f75565b820191906000526020600020905b815481529060010190602001808311613f5857829003601f168201915b5050505050815260200160038201805480602002602001604051908101604052809291908181526020018280548015613fcd57602002820191906000526020600020905b815481526020019060010190808311613fb9575b505050505081526020016004820160009054906101000a900460ff166004811115613ff457fe5b6004811115613fff57fe5b81526020016004820160019054906101000a900473ffffffffffffffffffffffffffffffffffffffff1673ffffffffffffffffffffffffffffffffffffffff1673ffffffffffffffffffffffffffffffffffffffff1681526020016005820160009054906101000a900473ffffffffffffffffffffffffffffffffffffffff1673ffffffffffffffffffffffffffffffffffffffff1673ffffffffffffffffffffffffffffffffffffffff168152602001600682015481525050905080600001518160200151826040015183608001518292508191509450945094509450509193509193565b606060008060006140f461494c565b60086000878152602001908152602001600020604051806080016040529081600082018054600181600116156101000203166002900480601f0160208091040260200160405190810160405280929190818152602001828054600181600116156101000203166002900480156141ab5780601f10614180576101008083540402835291602001916141ab565b820191906000526020600020905b81548152906001019060200180831161418e57829003601f168201915b5050505050815260200160018201548152602001600282015481526020016003820160009054906101000a900460ff1660048111156141e657fe5b60048111156141f157fe5b81525050905080600001518160200151826040015183606001518393509450945094509450509193509193565b60606002600481111561422d57fe5b6003600084815260200190815260200160002060050160009054906101000a900460ff16600481111561425c57fe5b1461426657600080fd5b61426e6146dc565b600360008481526020019081526020016000206040518061012001604052908160008201548152602001600182018054600181600116156101000203166002900480601f0160208091040260200160405190810160405280929190818152602001828054600181600116156101000203166002900480156143305780601f1061430557610100808354040283529160200191614330565b820191906000526020600020905b81548152906001019060200180831161431357829003601f168201915b505050505081526020016002820160009054906101000a900460ff16600381111561435757fe5b600381111561436257fe5b815260200160038201548152602001600482018054806020026020016040519081016040528092919081815260200182805480156143bf57602002820191906000526020600020905b8154815260200190600101908083116143ab575b505050505081526020016005820160009054906101000a900460ff1660048111156143e657fe5b60048111156143f157fe5b81526020016005820160019054906101000a900473ffffffffffffffffffffffffffffffffffffffff1673ffffffffffffffffffffffffffffffffffffffff1673ffffffffffffffffffffffffffffffffffffffff1681526020016006820160009054906101000a900473ffffffffffffffffffffffffffffffffffffffff1673ffffffffffffffffffffffffffffffffffffffff1673ffffffffffffffffffffffffffffffffffffffff16815260200160078201548152505090508060800151915050919050565b60056020528060005260406000206000915090505481565b600080600080600080600080600660008a815260200190815260200160002060060154141561450057600080fd5b61450861497f565b600660008a81526020019081526020016000206040518060e00160405290816000820160009054906101000a900460ff16600381111561454457fe5b600381111561454f57fe5b815260200160018201548152602001600282015481526020016003820160009054906101000a900460ff16600481111561458557fe5b600481111561459057fe5b815260200160048201548152602001600582015481526020016006820154815250509050806000015181602001518260400151836060015184608001518560a001518660c00151975097509750975097509750975050919395979092949650565b60008060048111156145ff57fe5b6008600085815260200190815260200160002060030160009054906101000a900460ff16600481111561462e57fe5b1461463857600080fd5b8260086000858152602001908152602001600020600101819055508360086000858152602001908152602001600020600001908051906020019061467d9291906147e6565b5081600860008581526020019081526020016000206002018190555060016008600085815260200190815260200160002060030160006101000a81548160ff021916908360048111156146cc57fe5b0217905550600190509392505050565b60405180610120016040528060008152602001606081526020016000600381111561470357fe5b815260200160008152602001606081526020016000600481111561472357fe5b8152602001600073ffffffffffffffffffffffffffffffffffffffff168152602001600073ffffffffffffffffffffffffffffffffffffffff168152602001600081525090565b604051806101000160405280600081526020016060815260200160608152602001606081526020016000600481111561479f57fe5b8152602001600073ffffffffffffffffffffffffffffffffffffffff168152602001600073ffffffffffffffffffffffffffffffffffffffff168152602001600081525090565b828054600181600116156101000203166002900490600052602060002090601f016020900481019282601f1061482757805160ff1916838001178555614855565b82800160010185558215614855579182015b82811115614854578251825591602001919060010190614839565b5b50905061486291906149d2565b5090565b6040518060a00160405280606081526020016000600481111561488557fe5b8152602001600073ffffffffffffffffffffffffffffffffffffffff168152602001600073ffffffffffffffffffffffffffffffffffffffff168152602001600081525090565b828054600181600116156101000203166002900490600052602060002090601f016020900481019282601f1061490d57805160ff191683800117855561493b565b8280016001018555821561493b579182015b8281111561493a57825182559160200191906001019061491f565b5b50905061494891906149d2565b5090565b60405180608001604052806060815260200160008152602001600081526020016000600481111561497957fe5b81525090565b6040518060e001604052806000600381111561499757fe5b81526020016000815260200160008152602001600060048111156149b757fe5b81526020016000815260200160008152602001600081525090565b6149f491905b808211156149f05760008160009055506001016149d8565b5090565b9056fea165627a7a723058207a7674400dfee63892bc5138eeecac800a2734c433f04e0deac913a50dc0e6810029",
  "source": "pragma solidity ^0.5.8;\r\n\r\ncontract PharmaChain {\r\n    \r\n    address public  superAdmin;  //address of the super admin\r\n    \r\n    uint quotlist;\r\n    \r\n    enum Status { NotExist, Pending, Aproved, Rejected, OutForDelivery }    //represting the Status of manufacturer and supplier\r\n    \r\n    enum QuoteStatus { NotExist, Quoted, QuoteApproved, QuoteRejected, ReQuoted }  //Status of the quot\r\n    \r\n    enum Rawmat { Sulphur, Phosphorous, Iron, Calcium }     //raw material data\r\n    \r\n    \r\n    struct mfg {\r\n        \r\n        uint mfgid;\r\n        \r\n        string mfgname;\r\n        \r\n        string productname;                  //structure of manufacturer\r\n        \r\n        uint[] mfgquotlist;\r\n        \r\n        Status status;\r\n        \r\n        address mfgaddress;\r\n        \r\n        address createdby;\r\n        \r\n        uint createdat;\r\n        \r\n        \r\n    }\r\n    \r\n    \r\n    struct sup {\r\n        \r\n        uint supid;\r\n        \r\n        string supname;\r\n        \r\n        Rawmat rawmat;\r\n        \r\n        uint price;                         //structure of supplier\r\n        \r\n        uint[] supquotlist;\r\n        \r\n        Status status;\r\n        \r\n        address supaddress;\r\n        \r\n        address createdby;\r\n        \r\n        uint createdat;\r\n        \r\n        \r\n        \r\n    }\r\n    \r\n    \r\n    \r\n    struct quot {\r\n        \r\n        Rawmat rawmat;\r\n        \r\n        uint quantity;\r\n        \r\n        uint price;\r\n                                            //structure of quot\r\n        QuoteStatus status;\r\n        \r\n        uint supid;\r\n        \r\n        uint mfgid;\r\n        \r\n        uint createdat;\r\n        \r\n        \r\n    }\r\n    \r\n    \r\n    struct admin {\r\n        \r\n        string name;\r\n        \r\n        Status status;\r\n                                            //structure of admin\r\n        address adminaddress;\r\n        \r\n        address createdby;\r\n        \r\n        uint createdat;\r\n    }\r\n    \r\n    struct productVerf {\r\n        \r\n        string productname;\r\n        \r\n        uint productid;   //structure of product\r\n        \r\n        uint quality;\r\n        \r\n        Status status;\r\n        \r\n        \r\n        \r\n        \r\n        \r\n        \r\n    }\r\n    \r\n    mapping (uint => mfg) public mfgs;  \r\n    \r\n    mapping (uint => sup) public sups;\r\n    \r\n    mapping (address => uint) public mfgsid;\r\n                                                                     //all mappings\r\n    mapping (address => uint) public supsid;\r\n    \r\n    mapping (uint => quot) public quots;\r\n    \r\n    mapping (address => admin) public admins;\r\n    \r\n    mapping (uint => productVerf) public productVerfs;\r\n    \r\n    \r\n    \r\n    modifier verifiedAdmin() {\r\n        \r\n        require(admins[msg.sender].status == Status.Aproved);\r\n        _;\r\n    }                                                                                                 //custom modifiers\r\n    \r\n    modifier onlySuperAdmin() {\r\n        \r\n        require(msg.sender == superAdmin);\r\n        _;\r\n    }\r\n    \r\n    \r\n    constructor() public payable{\r\n        \r\n        superAdmin = msg.sender;\r\n                                                                                                                 //initiating the blockchain\r\n        admins[msg.sender] = admin(\"SuperAdmin\", Status.Aproved, msg.sender, msg.sender, now );\r\n        \r\n    }\r\n    \r\n    \r\n    \r\n    function createAdmin ( string memory _name, address _adminaddress ) verifiedAdmin public returns (bool) {\r\n        \r\n        require(admins[_adminaddress].status == Status.NotExist);                                          //creating admin\r\n        \r\n        admins[_adminaddress] = admin ( _name, Status.Pending, _adminaddress, msg.sender, now);\r\n        \r\n        return true;\r\n        \r\n        \r\n    }\r\n   \r\n    function aproveAdmin (address _adminaddress) onlySuperAdmin public returns (bool) {\r\n        \r\n        require(admins[_adminaddress].status == Status.Pending);                                          //aprove admin\r\n        \r\n        admins[_adminaddress].status = Status.Aproved;\r\n        \r\n        return true;\r\n    }\r\n    \r\n    function rejectAdmin ( address _adminaddress) onlySuperAdmin public returns (bool) {\r\n        \r\n        require(admins[_adminaddress].status == Status.Pending);                                             //reject admin\r\n        \r\n        admins[_adminaddress].status = Status.Rejected;\r\n        \r\n        return true;\r\n    }\r\n     \r\n   function getAdmin(address _id) public view returns (string memory , Status, address , address, uint) {\r\n       \r\n        admin memory _admin=admins[_id];\r\n        //get admin info\r\n        return(_admin.name , _admin.status, _admin.adminaddress, _admin.createdby, _admin.createdat);\r\n        \r\n    }\r\n    \r\n    \r\n    \r\n    function createMfg ( uint _mfgid, string memory _mfgname, string memory _productname, address _mfgaddress ) verifiedAdmin public returns (bool) {\r\n        \r\n        require(mfgs[_mfgid].status == Status.NotExist);\r\n        \r\n        mfgs[_mfgid].mfgid = _mfgid;\r\n        \r\n        mfgs[_mfgid].mfgname = _mfgname;\r\n        \r\n        mfgs[_mfgid].productname = _productname;                                                   //create manufacturer\r\n        \r\n        mfgs[_mfgid].status = Status.Pending;\r\n        \r\n        mfgs[_mfgid].mfgaddress = _mfgaddress;\r\n        \r\n        mfgs[_mfgid].createdby = msg.sender;\r\n        \r\n        mfgs[_mfgid].createdat = now;\r\n             \r\n        mfgsid[_mfgaddress] = _mfgid;\r\n        \r\n        return true;\r\n\r\n    }\r\n    \r\n    function aproveMfg (uint _id) onlySuperAdmin public returns (bool) {\r\n        \r\n        require(mfgs[_id].createdby != msg.sender);\r\n        \r\n        require(mfgs[_id].status == Status.Pending);                               //aprove manufacturer\r\n        \r\n        mfgs[_id].status = Status.Aproved;\r\n        \r\n        return true;\r\n        \r\n    }\r\n    \r\n    function rejectMfg ( uint _id ) onlySuperAdmin public returns (bool) {\r\n        \r\n        require(mfgs[_id].createdby != msg.sender);\r\n        \r\n        require(mfgs[_id].status == Status.Pending);                                   //reject manufacturer\r\n        \r\n        mfgs[_id].status = Status.Rejected;\r\n        \r\n        return true;\r\n        \r\n    }\r\n    \r\n    \r\n    \r\n    function createSup ( uint _supid, string memory _supname, Rawmat _rawmat, uint _price, address _supaddress ) verifiedAdmin public returns (bool) {\r\n        \r\n        require(sups[_supid].status == Status.NotExist);\r\n        \r\n         sups[_supid].supid = _supid;\r\n         \r\n         sups[_supid].supname = _supname;\r\n         \r\n         sups[_supid].rawmat = _rawmat;\r\n                                                                                        //create supplier\r\n         sups[_supid].price = _price;\r\n         \r\n         sups[_supid].status = Status.Pending;\r\n        \r\n         sups[_supid].supaddress = _supaddress;\r\n        \r\n         sups[_supid].createdby = msg.sender;\r\n        \r\n         sups[_supid].createdat = now;\r\n        \r\n         supsid[_supaddress] = _supid;    \r\n         \r\n         return true;\r\n   \r\n    }\r\n    \r\n    \r\n    function aproveSup ( uint _id ) onlySuperAdmin public returns (bool) {\r\n        \r\n        require(sups[_id].createdby != msg.sender);\r\n        \r\n        require(sups[_id].status == Status.Pending);                                                      //aprove supplier\r\n        \r\n        sups[_id].status = Status.Aproved;\r\n        \r\n        return true;\r\n    }\r\n    \r\n    function rejectSup ( uint _id ) onlySuperAdmin public returns (bool) {\r\n       \r\n       require(sups[_id].createdby != msg.sender);\r\n        \r\n       require(sups[_id].status == Status.Pending);                                                                //reject supplier\r\n        \r\n       sups[_id].status = Status.Rejected; \r\n       \r\n       return true;\r\n        \r\n    }\r\n    \r\n    \r\n    function searchMfg ( uint _mfgid ) public view returns ( uint, string memory, string memory, Status ) {\r\n        \r\n        mfg memory _mfg = mfgs[_mfgid];                                                                                        //manufacturer search\r\n        \r\n        return ( _mfg.mfgid, _mfg.mfgname, _mfg.productname,_mfg.status);\r\n    }\r\n    \r\n    \r\n    function searchSup (uint _supid ) public view returns ( uint, string memory, Rawmat, uint, Status) {\r\n        \r\n        sup memory _sup = sups[_supid];                                                                                         //supplier search\r\n                                                                                                                  \r\n        return ( _sup.supid, _sup.supname, _sup.rawmat, _sup.price, _sup.status );\r\n    }\r\n    \r\n    function createQuot ( uint _mfgid, Rawmat _rawmat, uint _quantity, uint _price, uint _supid ) public  returns (bool) {\r\n        \r\n        require(mfgs[_mfgid].mfgaddress == msg.sender);\r\n        \r\n        require(mfgs[_mfgid].status == Status.Aproved);\r\n        \r\n        require(sups[_supid].status == Status.Aproved);                                                                                 //create quot\r\n        \r\n        quotlist++;\r\n        \r\n        quots[quotlist] = quot ( _rawmat, _quantity, _price, QuoteStatus.Quoted, _supid, _mfgid, now);\r\n        \r\n        mfgs[_mfgid].mfgquotlist.push(quotlist);\r\n        \r\n        sups[_supid].supquotlist.push(quotlist);\r\n        \r\n        return true;\r\n        \r\n    }\r\n        \r\n        \r\n    function aproveQuot ( uint _quotlist) verifiedAdmin public  returns (bool) {\r\n        \r\n        require(quots[_quotlist].status == QuoteStatus.Quoted);                                           //aprove quot\r\n        \r\n        quots[_quotlist].status = QuoteStatus.QuoteApproved;\r\n        \r\n        return true;\r\n        \r\n        \r\n    }\r\n    \r\n    function rejectQuot ( uint _quotlist ) verifiedAdmin public  returns (bool) {\r\n        \r\n        require(quots[_quotlist].status == QuoteStatus.Quoted);                                           //reject quot\r\n        \r\n        quots[_quotlist].status = QuoteStatus.QuoteRejected;\r\n        \r\n        return true;\r\n        \r\n    }\r\n    \r\n    function requot ( uint _quotlist, uint _quantity, uint _price) public  returns (bool) {\r\n        \r\n        require(quots[_quotlist].status == QuoteStatus.Quoted);\r\n        \r\n        require(quots[_quotlist].mfgid == mfgsid[msg.sender]);\r\n                                                                                                       //for requot\r\n        quots[_quotlist].quantity = _quantity;\r\n        \r\n        quots[_quotlist].price = _price;\r\n        \r\n        quots[_quotlist].status = QuoteStatus.ReQuoted;\r\n        \r\n        return true;\r\n        \r\n        \r\n    }\r\n    \r\n    function aproveRequot ( uint _quotlist) verifiedAdmin public  returns (bool) {\r\n        \r\n        require(quots[_quotlist].status == QuoteStatus.ReQuoted);                              //aprove requot\r\n        \r\n        quots[_quotlist].status = QuoteStatus.QuoteApproved;\r\n        \r\n        return true;\r\n        \r\n    }\r\n    \r\n    function rejectRequot ( uint _quotlist) verifiedAdmin public  returns (bool) {\r\n        \r\n        require(quots[_quotlist].status == QuoteStatus.ReQuoted);                                  //reject requot\r\n                                         \r\n        quots[_quotlist].status = QuoteStatus.QuoteRejected;\r\n        \r\n        return true;\r\n    }\r\n    \r\n    function getQuot (uint _quotid ) public view returns (Rawmat, uint, uint, QuoteStatus, uint, uint, uint) {\r\n        \r\n       require(quots[_quotid].createdat != 0);\r\n                                                                                                                         //get quot details\r\n       quot memory _quot = quots[_quotid];\r\n       \r\n       return(_quot.rawmat, _quot.quantity, _quot.price, _quot.status, _quot.supid, _quot.mfgid, _quot.createdat);\r\n    }\r\n    \r\n    function getmfgQuotlist (uint _id ) public view returns (uint[] memory) {\r\n        \r\n        require(mfgs[_id].status == Status.Aproved);\r\n                                                                          //get manufacturer quot list \r\n        mfg memory _mfg = mfgs[_id];\r\n        \r\n        return (_mfg.mfgquotlist);\r\n        \r\n    }\r\n    \r\n    function getsupQuotlist ( uint _id ) public view returns (uint[] memory) {\r\n        \r\n        require(sups[_id].status == Status.Aproved);\r\n                                                                          \r\n                                                                          //get suppliers quot list \r\n        sup memory _sup = sups[_id];\r\n        \r\n        return (_sup.supquotlist);\r\n    }\r\n    \r\n    \r\n    function productVerify ( string memory _productname, uint _productid, uint _quality ) public  returns (bool) {\r\n        \r\n        require(productVerfs[_productid].status == Status.NotExist);\r\n        \r\n        productVerfs[_productid].productid = _productid;\r\n                                                                             //verification of product (by taking samples of the product)\r\n        productVerfs[_productid].productname = _productname;\r\n        \r\n        productVerfs[_productid].quality = _quality;\r\n        \r\n        productVerfs[_productid].status = Status.Pending;\r\n        \r\n        return true;\r\n    }\r\n    \r\n    function aproveProduct (uint _productid ) verifiedAdmin public returns (bool) {\r\n        \r\n        require(productVerfs[_productid].status == Status.Pending);\r\n                                                                                              //product is verified and aproved for delivery\r\n        productVerfs[_productid].status = Status.Aproved;\r\n        \r\n        return true;\r\n    }\r\n    \r\n    function rejectProduct ( uint _productid ) verifiedAdmin public returns (bool) {\r\n        \r\n        require(productVerfs[_productid].status == Status.Pending);\r\n                                                                                                  //product is rejected \r\n        productVerfs[_productid].status = Status.Rejected;\r\n        \r\n        return true;\r\n    }\r\n    \r\n    function getProduct ( uint _productid ) view public returns ( string memory, uint, uint ,Status ) {\r\n        \r\n        productVerf memory _product = productVerfs[_productid];                                                      //get product details\r\n        \r\n        return ( _product.productname, _product.productid, _product.quality, _product.status );\r\n    }\r\n    \r\n    \r\n    function producyOutdev ( uint _productid ) verifiedAdmin public returns (bool) {\r\n        \r\n        require(productVerfs[_productid].status == Status.Aproved);\r\n        \r\n        productVerfs[_productid].status = Status.OutForDelivery;\r\n        \r\n        return true;\r\n    } \r\n    \r\n    \r\n    \r\n    \r\n    \r\n    \r\n    \r\n}",
  "sourcePath": "D:/PharmaChain_CDRI/contracts/PharmaChain.sol",
  "compiler": {
    "name": "solc",
    "version": "0.5.8+commit.23d335f2.Emscripten.clang"
  },
  "schemaVersion": "3.0.11",
  "updatedAt": "2019-06-23T14:46:57.461Z",
  "devdoc": {
    "methods": {}
  },
  "userdoc": {
    "methods": {}
  }
}